:1011CC00D3EF9400EE9400400F7D027CEFDCFEDD4B
:0811DC00FCEF1F70EB1E80E820
:0111E40022E8
:0C126E007F2E7E997DF5DDFEDEFCDFFAB0
:01127A002251
:0D127B001211B27FCC1211E57F440211E583
:1010EB001211B27FCC1211E57FBE1211E5121195D0
:1010FB008F26121195EFFEE526FFFDAC06EC1202D2
:0B110B0032E4FBFA7980784102011702
:0A113900082F18040411140004FF2D
:05129C00C2B5C2B6223C
:050F65002DFDEE3CFC37
:060F6A008C268D27AB0769
:100F7000D2B5E4FD7E007401A805088005C333CE18
:100F800033CED8F9FFEBF582EF558224FF92B4C23D
:100F9000B6D2B60DBD08DDE4FD7E007401A80508DB
:100FA0008005C333CE33CED8F9FFE5265EFEE527B4
:0E0FB0005F4E24FF92B4C2B6D2B60DBD08DB70
:010FBE002210
:020FBF00AD077C
:100FC100E4F9430501D2B5FB7E007401A803088052
:100FD10005C333CE33CED8F9FFEDF582EF55822428
:100FE100FF92B4C2B6D2B60BBB08DDE4FBD2B6C2E7
:100FF100B630B40DA8037401088002C333D8FC4293
:0B100100010BBB08E8C2B5C2B4AF0190
:01100C0022C1
:100A2500E4FDFC7F8E120F6AE52F75F00A1202ECC9
:100A3500FF3395E0FEEFC4F8540FC868FFEEC454C9
:100A4500F048FEE52F75F00A1202ECADF0ED339596
:100A5500E0FCEF7F8C120F65E53075F00A1202ECB1
:100A6500FF3395E0FEEFC4F8540FC868FFEEC45499
:100A7500F048FEE53075F00A1202ECADF0ED339565
:100A8500E0FCEF7F88120F65E53175F00A1202EC84
:100A9500FF3395E0FEEFC4F8540FC868FFEEC45469
:100AA500F048FEE53175F00A1202ECADF0ED339534
:100AB500E0FCEF2DFDEE3CFC7F86120F6AE53275FA
:100AC500F00A1202ECFF3395E0FEEFC4F8540FC8AC
:100AD50068FFEEC454F048FEE53275F00A1202ECE8
:100AE500ADF0ED3395E0FCEF2DFDEE3CFC7F84127F
:100AF5000F6AE53375F00A1202ECFF3395E0FEEF5D
:100B0500C4F8540FC868FFEEC454F048FEE53375C9
:100B1500F00A1202ECADF0ED3395E0FCEF2DFDEEA1
:100B25003CFC7F82120F6AE53475F00A1202ECFF75
:100B35003395E0FEEFC4F8540FC868FFEEC454F0D7
:100B450048FEE53475F00A1202ECADF0ED3395E0A0
:100B5500FCEF2DFDEE3CFC7F80120F6AE53575F04C
:100B65000A1202ECFF3395E0FEEFC4F8540FC86893
:100B7500FFEEC454F048FEE53575F00A1202ECADFF
:100B8500F0ED3395E0FCEF2DFDEE3CFC7F8A120F76
:0A0B95006A7D807C007F8E020F6AEB
:100C2F007F8C120FBFEFC4540F75F00AA4FEEF5460
:100C3F000F2EF52F7F88120FBFEFC4540F75F00AD8
:100C4F00A4FEEF540F2EF5307F86120FBFEFC45462
:100C5F000F75F00AA4FEEF540F2EF5317F84120F9B
:100C6F00BFEFC4540F75F00AA4FEEF540F2EF532E8
:100C7F007F82120FBFEFC4540F75F00AA4FEEF541A
:100C8F000F2EF5337F80120FBFEFC4540F75F00A8C
:100C9F00A4FEEF540F2EF5347F8A120FBFEFC4540A
:0C0CAF000F75F00AA4FEEF540F2EF5356F
:010CBB002216
:100EA700E4F52620B1137F14FE1211CC30B1FD7F7B
:100EB700147E001211CC75260120B0147F147E0019
:100EC7001211CC30B0FD7F147E001211CC752602B2
:100ED70020B2147F147E001211CC30B2FD7F147E35
:100EE700001211CC75260320B3147F147E00121153
:100EF700CC30B3FD7F147E001211CC752604AF26CB
:010F070022C7
:06125100C2A58F80D2A7A8
:081257007F027EEFDEFEDFFCEA
:01125F00226C
:0A128800C2A6121251C2A7021257AB
:10115A00CFCDCFCECCCE12034D7C007D0A12034DEB
:04116A00ED2430FF41
:0A116E00D2A6121251C2A7021257B6
:10121500AE07BE0104ED148006BE0209ED243F446D
:0612250080FF1212882276
:10122B007F381212887F0C1212887F061212887F69
:04123B000102128812
:0A129200AC03121215AF0402116E36
:061116008B268A278928C0
:10111C00121215E4FDAB26AA27A9288D827583002F
:0C112C0012030EFF600612116E0D80E928
:011138002294
:0C10B8007F0AEA24FFFDE434FFFC7E0008
:0810C4008E2B8F2C8C2D8D2E3C
:1010CC007F017E00E4FBEBC3952EE52D6480F87464
:0E10DC008098500AAC2BAD2C12033B0B80E821
:0110EA0022E3
:041178008A288B290D
:10117C00121215AA2AEAD39400400D1210B8AC280A
:08118C00AD2912115A1A80ED81
:011194002238
:10100D00121215C3EA64809480400B7F2B12116E6F
:10101D008A3C8B3D800E7F2D12116EC3E49BF53DF6
:10102D00E49AF53CAA3BEAD39400400D1210B8ACFB
:09103D003CAD3D12115A1A80ED80
:011046002287
:041047008A408B410F
:10104B00121215AA42EAD3940040297F101210BA4B
:10105B00AC40AD41CFCDCFCECCCE12034DEF540F24
:10106B00FEC3940AEE5004243080022437FF121181
:04107B006E1A80D198
:01107F00224E
:041080008A458B46CC
:10108400121215AA47EAD394004028EA24FFFDE48B
:1010940034FFFC7F027E001210C4AC45AD46CFCDB8
:1010A400CFCECCCE12034DEF54012430FF12116E7B
:0310B4001A80D2CD
:0110B7002216
:100DC300517565656E6965277320436C6F636B00AE
:100DD3002020202020202020202020202020200030
:100DE300416C61726D277320002020200020003A9F
:100DF300004F4E20004F4646002020002D00486F34
:100E030075722020004D696E7574650053746174AA
:100E130065200044656C61790000173B01054D6F47
:100E23006E005475650057656E0054757200467206
:0A0E330069005361740053756E00EE
:10114300011F01010F01052008000002FF071163C1
:061153000C1F173B3B07D7
:100D480012127B12122B12129C1211FE7BFF7A0DCB
:100D580079C37D017F011211167FE87E031211CC41
:100D68007BFF7A0D79D37D017F011211161210EBEA
:100D78008F1D8E1C8D1B8C1A120003120EA78F1E3E
:100D8800E51EB4011BE50EB40103120A25E50EB4F5
:100D98000203120003050EE50E75F0038485F00EBC
:100DA800E50E14600C14600E240270CF1206AB809E
:0B0DB800CA12047E80C512087580C0BE
:03000B00020B9F46
:090B9F00C0E0C0D075D000C00711
:100BA800758A66758CFC0509E50970020508C39409
:100BB800F4E50894014012750800750900E5107005
:100BC800047F0180027F008F10050BE50B70020582
:100BD8000AC394F4E50A94014035E50B94E8E50A64
:100BE8009403502BE5256038E50B948AE50A9402B6
:100BF8004015E50B94EEE50A9402400FD3E50B94FB
:100C080084E50A94035004C2A08015D2A08011C3C1
:100C1800E50B94DCE50A94054006750A00750B009F
:070C2800D007D0D0D0E0326C
:070003008520188521192258
:100875007BFF7A0D79E37D017F01121116E50C7579
:10088500F007A42401F9740E35F0FA7BFF7D097F8A
:10089500011211167BFF7A0D79EC7D067F0212118C
:1008A500167BFF7A0D79EC7D0C7F021211167BFF0A
:1008B5007A0D79F07D107F02121116E520FB339534
:1008C500E0FA752A027D017F02121178E521FB33DA
:1008D50095E0FA752A027D047F021211787BFF7A72
:1008E5000D79F27D037F02121116E5227BFFB4011B
:1008F500067A0D79F480047A0D79F87D097F021264
:100905001116E523FB3395E0FA752A017D0F7F0269
:10091500121178E51EB40205050C530C03E51E649F
:100925000370307420250CF806E50C900E1D93FF1E
:100935007420250CF8E6FED3EF6480F8EE64809809
:1009450040117420250CF8E4F6E50CB403052420C9
:10095500F87601E51E640470217420250CF81674E0
:1009650020250CF8E6C364809480500EE50C900EAB
:100975001D93FF7420250CF8A607E50C7014E510EF
:10098500B4010F7BFF7A0D79FC7D017F02121116F0
:100995008011E520FB3395E0FA752A027D017F027F
:1009A500121178E50CB40114E510B4010F7BFF7A40
:1009B5000D79FC7D047F021211168011E521FB33B0
:1009C50095E0FA752A027D047F02121178E50CB4D0
:1009D500020DE510B401087BFF7A0D79EC8011E575
:1009E500227BFFB401067A0D79F480047A0D79F83B
:1009F5007D097F02121116E50CB40312E510B4014E
:100A05000D7BFF7A0D79FC7D0F7F02021116E52320
:100A1500FB3395E0FA752A017D0F7F0212117822CA
:100E3D00E5326518705BE53365197055E50F852250
:100E4D00F0A4F525E51E6403703AE5232519F5197F
:100E5D00900E1EE493FFD36480F8E51964809840EA
:100E6D0023EF04FFE5199FF5190518900E1DE49366
:100E7D00FFD36480F8E5186480984008EF04FFE51F
:100E8D00189FF518E51EB40410E4F50FD2A002006A
:0A0E9D0003750F01E4F525D2A02231
:1006AB00120C2FE4FF74112FF8E6FE742F2FF8E6CF
:1006BB00FDD3EE6480F8ED6480984006742F2FF81C
:1006CB00A6060FBF07DFE51F6006120A25E4F51F1C
:1006DB00120E3DE52FFB3395E0FA752A027D017F63
:1006EB0001121178E530FB3395E0FA752A027D048F
:1006FB007F01121178E531FB3395E0FA752A027D03
:10070B00077F011211787BFF7A0D79FF7D037F0143
:10071B001211167BFF7A0D79FF7D067F01121116E0
:10072B007BFF7A0D79FC7D097F01121116AF35EF36
:10073B003395E0FEEF7802C333CE33CED8F9241DC8
:10074B00F9740E3EFA7BFF7D0B7F011211167BFFB6
:10075B007A0D79FC7D0E7F01121116E522B401048E
:10076B007B4180027B207D107F01121292E532FBD0
:10077B003395E0FA752A027D017F02121178E53379
:10078B00FB3395E0FA752A027D047F02121178E59E
:10079B0034FB3395E0FA752A027D077F021211783C
:1007AB007BFF7A0D79F27D037F021211167BFF7AA4
:1007BB000D79F27D067F021211167BFF7A0D79FC03
:1007CB007D097F02121116C2AF12127B1210EB8F32
:1007DB001D8E1C8D1B8C1AD2AFE4FFFEFDFCAB1DD6
:1007EB00AA1CA91BA81A1201B450047B2D8018E473
:1007FB00FFFEFDFCAB1DAA1CA91BA81A1201B470AD
:10080B00047B2080027B2B7D0A7F02121292AF1D8C
:10081B00AE1CAD1BAC1A12026BAB07AA06752A02F3
:10082B007D0B7F021211787B2E7D0D7F02121292AF
:10083B00E4FFFE7D207C41AB1DAA1CA91BA81A124C
:10084B00000E12026BE47B0AFAF9F81203DE752A2A
:10085B00017D0E7F021211787BDF7D0F7F0212125A
:0A086B00927B437D107F020212927F
:100F0800E53064016023E5306403601DE530640565
:100F18006017E53064076011E5306408600BE53060
:100F2800640A6005E530B40C0475131F22E53064CB
:100F3800046011E5306406600BE53064096005E57E
:100F480030B40B0475131E22E52F75F0041202EC61
:0D0F5800AFF0EF700475131D2275131C22FD
:10047E00E51EB4020B050DE50D75F0078485F00D34
:10048E00E51E64037076742F250DF806E50D6401E4
:10049E00600CE50D64026006E50D6406703E120FF9
:1004AE00087411250DF8E6FF742F250DF8E6FED31E
:1004BE00EF6480F8EE6480984007742F250DF8766F
:1004CE0001E50D64017035120F08D3E5136480F851
:1004DE00E531648098402585133180207411250DF7
:1004EE00F8E6FF742F250DF8E6FED3EF6480F8EEE4
:1004FE006480984007742F250DF8E4F6E51E640419
:10050E00706C742F250DF816E50D6401600CE50D69
:10051E0064026006E50D64067039120F08742F250B
:10052E000DF8E6C364809481500E7411250DF8E623
:10053E00FF742F250DF8A607E50D64017030120F1C
:10054E0008D3E5136480F8E5316480984020851364
:10055E0031801B742F250DF8E6C364809480500EF5
:10056E007411250DF8E6FF742F250DF8A607E50D7D
:10057E007014E510B4010F7BFF7A0D79FC7D017FBD
:10058E00011211168011E52FFB3395E0FA752A0240
:10059E007D017F01121178E50DB40114E510B4014F
:1005AE000F7BFF7A0D79FC7D047F011211168011ED
:1005BE00E530FB3395E0FA752A027D047F011211B6
:1005CE0078E50DB40214E510B4010F7BFF7A0D79B6
:1005DE00FC7D077F011211168011E531FB3395E08A
:1005EE00FA752A027D077F01121178E50DB4031406
:1005FE00E510B4010F7BFF7A0D79FC7D017F0212AD
:10060E0011168011E532FB3395E0FA752A027D0151
:10061E007F02121178E50DB40414E510B4010F7BBE
:10062E00FF7A0D79FC7D047F021211168011E533DD
:10063E00FB3395E0FA752A027D047F02121178E5EC
:10064E000DB40514E510B4010F7BFF7A0D79FC7D16
:10065E00077F021211168011E534FB3395E0FA750F
:10066E002A027D077F02121178E50DB4060DE51002
:10067E00B401087BFF7A0D79EC801AAF35EF339514
:10068E00E0FEEF7802C333CE33CED8F9241DF974D1
:0D069E000E3EFA7BFF7D0B7F01121116222C
:1011B200D2B7C2B77FF7DFFED2B77F20DFFEA2B77A
:0911C200E433FE7FF7DFFEAF0607
:0111CB002201
:10123F00C2B77E02DEFEEF24FF92B77E16DEFED22D
:01124F00B7E7
:01125000227B
:0D126000C2B7D2B7A2B7E433FF7E16DEFEA0
:01126D00225E
:0211E500AD0754
:1011E700E4FCA8047401088002C333D8FC5DFF1235
:0611F700123F0CBC08ECE5
:0111FD0022CF
:10119500E4FDFC121260EF600DA8047401088002E2
:0C11A500C333D8FC42050CBC08E9AF05C0
:0111B100221B
:1011FE005389F0438901C28DD28C758A66758CFC39
:07120E00D2A9D2AFC2B92240
:10000E00EC4D6011E8497017ED33EC3304600DE4EC
:10001E00FCFFFEFD22E933E8330470F80202D7122A
:10002E0002A258046009E4CC24815006285009022B
:10003E0002E12840030202DEC0E0EB4A7044B980C0
:10004E0006D0E0FB0202CDEF4E701CBD8008EBFF28
:10005E00EAFEE9FD80EBE98DF0A4FEE5F00200F783
:10006E00E9CDF9EAFEEBFFEF89F0A4FCE5F0CE89CD
:10007E00F0A42EFFE435F0CD89F0A42DFEE435F08A
:10008E008067EF4E7005BD80D780C3EF8BF0A4ACB8
:10009E00F0EE8BF0A42CFCE435F0F8EF8AF0A42CF3
:1000AE00E5F038FCE433CB8DF0A42CFCE5F03BF806
:1000BE00EE8AF0A42CFCE5F038F8E433CF89F0A4F6
:1000CE002CFCE5F038CF3400CE89F0A42FFFE5F0FC
:1000DE003EFEE433C98DF0A42EFEE5F039CD8AF054
:1000EE00A42FFFE5F03EFEE43DFD33D0E0FB5007CC
:1000FE000BBB000F0202E1EC2CFCEF33FFEE33FEE4
:06010E00ED33FD0202B911
:100114000202E1EC5D046005E8590470030202D7B1
:100124001202A2580460F6EC4860F2EC7004FDFE82
:10013400FF22C860DB2481C85009C39860025006BE
:100144000202DE9850CAF582E9294B4A7005AB8257
:100154000202CD75F0007C1A7880C3EF9BEE9AED15
:1001640099400DC3EF9BFFEE9AFEED99FDE842F036
:10017400DC23ACF0D0E0FFD0E0FED0E0FDAB822089
:10018400E7101BEB60BAEC2CFCEF33FFEE33FEED13
:1001940033FD0202B9E803F830E705C0F075F0005A
:1001A400EF2FFFEE33FEED33FD40B830E7C280AAF7
:1001B40074F8CC6480CCC86480C8F58204604FC3F2
:1001C400EB9FF5F0EA9E42F0E99D42F0E89C45F091
:1001D400603C501DE5825FFFE582D313CB5BCBF41B
:1001E4002B5582FB50280ABA002409B90020088044
:1001F4001DE5825BFBE582D313CF5FCFF4C3132FDE
:100204005582FF50090EBE00050DBD00010CC3EB65
:100214009FF5F0EA9E42F0E99D42F0E89C45F060CB
:0902240007CC4820E701B3EC22ED
:10022D0075F020800E75F010800575F0087D007E4C
:10023D00007F003392D530D503120470EC3340109B
:10024D00EF33FFEE33FEED33FDEC33FCD5F0ED2255
:0E025D00E5F0247EA2D513CC92E7CDCEFF2291
:10026B00EDD2E7CD33EC3392D524814006E4FFFE8B
:10027B00FDFC22FCE4CFCECDCC24E0501174FF80EA
:10028B00EDC3CC13CCCD13CDCE13CECF13CF047087
:07029B00F030D5DE02047013
:1002A200E9D2E7C933E833F892D5EDD2E7CD33ECA2
:0702B20033FC5002B2D5221B
:1002B900EC30E7100FBF000C0EBE00080DBD0004A6
:1002C9000BEB6014A2D5EB13FCED92E7FD2274FF52
:1002D900FCFDFEFF22E480F8A2D574FF13FC7D80AB
:0302E900E480EFBF
:03000000020CBC33
:0C0CBC00787FE4F6D8FD758147020D0337
:1002EC00C2D530F707B2D563F0FF05F030E70CB29A
:1002FC00D5F4048463F0FF05F080018430D502F45A
:02030C000422C9
:10030E00BB010CE58229F582E5833AF583E02250A4
:10031E0006E92582F8E622BBFE06E92582F8E222EE
:0D032E00E58229F582E5833AF583E4932208
:10033B00EF8DF0A4A8F0CF8CF0A428CE8DF0A42ED6
:02034B00FE2290
:10034D00BC000BBE0029EF8DF084FFADF022E4CC94
:10035D00F875F008EF2FFFEE33FEEC33FCEE9DEC5D
:10036D00984005FCEE9DFE0FD5F0E9E4CEFD22EDA3
:10037D00F8F5F0EE8420D21CFEADF075F008EF2FED
:10038D00FFED33FD4007985006D5F0F222C398FDDE
:05039D000FD5F0EA227B
:1003A20075F008758200EF2FFFEE33FECD33CDCC12
:1003B20033CCC58233C5829BED9AEC99E582984095
:1003C2000CF582EE9BFEED9AFDEC99FC0FD5F0D672
:1003D200E4CEFBE4CDFAE4CCF9A88222B800C1B99C
:1003E2000059BA002DEC8BF084CFCECDFCE5F0CBDA
:1003F200F97818EF2FFFEE33FEED33FDEC33FCEB13
:1004020033FB10D703994004EB99FB0FD8E5E4F9CD
:10041200FA227818EF2FFFEE33FEED33FDEC33FCBA
:10042200C933C910D7059BE99A4007EC9BFCE99AAE
:10043200F90FD8E0E4C9FAE4CCFB2275F010EF2FF3
:10044200FFEE33FEED33FDCC33CCC833C810D707F3
:100452009BEC9AE899400AED9BFDEC9AFCE899F82E
:0E0462000FD5F0DAE4CDFBE4CCFAE4C8F922C1
:0E047000C3E49FFFE49EFEE49DFDE49CFC229D
:100CC800020D48E493A3F8E493A34003F68001F2ED
:100CD80008DFF48029E493A3F85407240CC8C3332D
:100CE800C4540F4420C8834004F456800146F6DFFC
:100CF800E4800B0102040810204080901139E47E42
:100D0800019360BCA3FF543F30E509541FFEE493F0
:100D1800A360010ECF54C025E060A840B8E493A3B7
:100D2800FAE493A3F8E493A3C8C582C8CAC583CAE2
:100D3800F0A3C8C582C8CAC583CADFE9DEE780BE9A
:011159000095
:00000001FF
